:1000000014C01BC01BC019C018C017C016C015C033
:1000100014C013C012C011C010C00FC00EC00DC05C
:100020000CC00BC00AC009C008C011241FBECFE518
:10003000D1E0DEBFCDBF23D03CC0E2CF1F920F92F4
:100040000FB60F9211248F939F9383ED90E3019746
:10005000F1F700C00000C59A9F918F910F900FBEDD
:100060000F901F90189588EF87BB82E080BD85B701
:10007000886085BF8BB780688BBF78940895F3DF65
:1000800088B3877E88BB2FE38DE093E021508040CA
:100090009040E1F700C0000088B3886188BB2FE37F
:1000A0008DE093E0215080409040E1F700C00000D7
:0600B000E7CFF894FFCF3A
:00000001FF
