:100000000C9462000C948A000C948A000C948A0070
:100010000C948A000C948A000C948A000C948A0038
:100020000C948A000C948A000C948A000C9493041B
:100030000C948A000C948A000C948A000C948A0018
:100040000C9449040C948A000C9417040C94F1034A
:100050000C948A000C948A000C948A000C948A00F8
:100060000C948A000C948A000000000024002700F1
:100070002A0000000000250028002B0000000000DE
:1000800023002600290004040404040404040202DA
:100090000202020203030303030301020408102007
:1000A0004080010204081020010204081020000012
:1000B0000008000201000003040700000000000027
:1000C0000000540511241FBECFEFD8E0DEBFCDBF26
:1000D00011E0A0E0B1E0E0EFFFE002C005900D927A
:1000E000A838B107D9F722E0A8E8B1E001C01D9215
:1000F000A835B207E1F710E0C2E6D0E004C02197CE
:10010000FE010E94EB07C136D107C9F70E94B20574
:100110000C94F6070C940000CF92DF92EF92FF92BE
:10012000DC01A03282E0B8070CF03EC0B7FD06C08B
:10013000A53BB1052CF0A4EBB0E002C0A0E0B0E01C
:100140008091560228E830E06901C81AD10887FD7D
:10015000D394CC0CDD1CCC0CDD1C0D2C000CEE085B
:10016000FF088091570228E532E0281B310987FDFE
:100170003395220F331F220F331FA901330F660B54
:10018000770B9A01AB012C193D094E095F090E94BA
:10019000A60724EB30E040E050E00E947C07C20E4E
:1001A000D31EE41EF51ED601909155029C3098F5A1
:1001B0008091560248E850E0481B510987FD53954D
:1001C000440F551F440F551FA417B5078CF080919D
:1001D000570228E532E0281B310987FD3395220FAD
:1001E000331F220F331FAD012A173B070CF4A9015F
:1001F00042505109440F551F2FB7F894892F90E0B2
:10020000FC01EE0FFF1F8E0F9F1FFC01E05DFD4FF5
:10021000528341832FBFFF90EF90DF90CF900895DE
:10022000CF92DF92EF92FF920F931F93CF93DF93C2
:100230006C017A018B01C0E0D0E0CE15DF0581F0C2
:10024000D8016D918D01D601ED91FC910190F08165
:10025000E02DC6010995892B11F02196EECF7E0184
:10026000C701DF91CF911F910F91FF90EF90DF9029
:10027000CF900895089580E090E00895FC01538D9B
:10028000448D252F30E0842F90E0821B930B541770
:1002900010F0CF96089501970895FC01918D828DFD
:1002A000981761F0828DDF01A80FB11D5D968C91CA
:1002B000928D9F5F9F73928F90E008958FEF9FEFD5
:1002C0000895FC01918D828D981731F0828DE80F91
:1002D000F11D858D90E008958FEF9FEF0895FC014B
:1002E000918D228D892F90E0805C9F4F821B910918
:1002F0008F739927089583E991E00E946F0121E0AF
:10030000892B09F420E0822F0895FC01848DDF0100
:10031000A80FB11DA35ABF4F2C91848D90E0019678
:100320008F739927848FA689B7892C93A089B18967
:100330008C91837080648C93938D848D981306C008
:100340000288F389E02D80818F7D80830895EF926C
:10035000FF920F931F93CF93DF93EC0181E0888F7F
:100360009B8D8C8D981305C0E889F989808185FD66
:1003700026C0F62E0B8D10E00F5F1F4F0F73112755
:10038000E02E8C8DE8120CC00FB607FCFACFE8897E
:10039000F989808185FFF5CFCE010E948501F1CFDB
:1003A0008B8DFE01E80FF11DE35AFF4FF0829FB7DE
:1003B000F8940B8FEA89FB89808180620AC09FB71D
:1003C000F894EE89FF896083E889F98980818370D8
:1003D000806480839FBF81E090E0DF91CF911F9187
:1003E0000F91FF90EF900895CF93DF93EC01888DEC
:1003F0008823C9F0EA89FB89808185FD05C0A88929
:10040000B9898C9186FD0FC00FB607FCF5CF8081AE
:1004100085FFF2CFA889B9898C9185FFEDCFCE01F8
:100420000E948501E7CFDF91CF91089580E090E0B1
:10043000892B29F00E947B0181110C940000089502
:10044000833081F028F4813099F08230A1F0089552
:100450008730A9F08830B9F08430D1F480918000E1
:100460008F7D03C0809180008F77809380000895F6
:1004700084B58F7702C084B58F7D84BD0895809147
:10048000B0008F7703C08091B0008F7D8093B00063
:100490000895CF93DF93282F30E0F901E255FF4F05
:1004A0008491F901E656FF4FD491F901EA57FF4FC5
:1004B000C491CC2391F081110E942002EC2FF0E036
:1004C000EE0FFF1FE458FF4FA591B491EC91ED237F
:1004D00081E090E021F480E002C080E090E0DF91D4
:1004E000CF9108951F93CF93DF93282F30E0F90128
:1004F000E255FF4F8491F901E656FF4FD491F9017F
:10050000EA57FF4FC491CC23C1F0162F81110E94EE
:100510002002EC2FF0E0EE0FFF1FEE58FF4FA591E9
:10052000B4919FB7F894111104C08C91D095D82341
:1005300002C0EC91DE2BDC939FBFDF91CF911F9126
:100540000895CF93DF9390E0FC01E656FF4F24918E
:10055000FC01EA57FF4F8491882361F190E0880FF6
:10056000991FFC01E859FF4FC591D491FC01EE5849
:10057000FF4FA591B491611109C09FB7F89488818C
:10058000209582238883EC912E230BC0623061F486
:100590009FB7F8948881322F309583238883EC911C
:1005A0002E2B2C939FBF06C08FB7F894E8812E2B7B
:1005B00028838FBFDF91CF9108953FB7F894809142
:1005C0008E0190918F01A0919001B091910126B57B
:1005D000A89B05C02F3F19F00196A11DB11D3FBF7B
:1005E000BA2FA92F982F8827820F911DA11DB11D09
:1005F000BC01CD0142E0660F771F881F991F4A9505
:10060000D1F708958F929F92AF92BF92CF92DF92CF
:10061000EF92FF920E94DD024B015C0184E6C82E3E
:10062000D12CE12CF12C0E94DD02DC01CB018819D8
:100630009909AA09BB09883E9340A105B10598F321
:1006400021E0C21AD108E108F10888EE880E83E0A3
:10065000981EA11CB11CC114D104E104F10419F7C6
:10066000FF90EF90DF90CF90BF90AF909F908F90D2
:100670000895009769F0FC0101900020E9F7319797
:10068000AF01481B590BBC0183E991E00C941001A8
:1006900080E090E00895CF93DF930E943903EC014E
:1006A00088E191E00E9439038C0F9D1FDF91CF916B
:1006B00008958F929F92AF92BF92CF92DF92EF9266
:1006C000FF920F931F93CF93DF93CDB7DEB7A19720
:1006D0000FB6F894DEBF0FBECDBF6C01990FEE08C8
:1006E000FF08F7FE2BC06DE283E991E00E94A701AD
:1006F0008C0122273327A9012C193D094E095F09D6
:1007000019A2CE0181967C019AE0892E912CA12C10
:10071000B12CCA01B901A50194010E94AE07605D28
:10072000F70162937F01211531054105510589F7D4
:10073000CF010E943903080F191F1EC0A70196019F
:1007400019A28E010F5D1F4F8AE0C82ED12CE12C1B
:10075000F12CCA01B901A70196010E94AE07605DA4
:10076000F80162938F01211531054105510589F783
:10077000CF010E9439038C0188E191E00E94390386
:10078000800F911FA1960FB6F894DEBF0FBECDBFAC
:10079000DF91CF911F910F91FF90EF90DF90CF905D
:1007A000BF90AF909F908F900895CF93DF93EC010F
:1007B000862FC43BD10524F42196C43BD10529F4EE
:1007C00061E00E947202C4EBD0E0CE010E945903A6
:1007D000CE010E948C00CE01DF91CF9108950E943E
:1007E000F1071F920F920FB60F9211242F933F9390
:1007F0004F935F936F937F938F939F93AF93BF9329
:10080000EF93FF9383E991E00E948501FF91EF91BF
:10081000BF91AF919F918F917F916F915F914F9118
:100820003F912F910F900FBE0F901F9018951F9220
:100830000F920FB60F9211242F938F939F93EF93E4
:10084000FF93E091A301F091A4018081E091A901BF
:10085000F091AA0182FD12C090818091AC018F5F5E
:100860008F732091AD01821751F0E091AC01F0E05F
:10087000ED56FE4F958F8093AC0101C08081FF91B2
:10088000EF919F918F912F910F900FBE0F901F901E
:1008900018951F920F920FB60F9211242F933F932A
:1008A0008F939F93AF93BF9380918A0190918B0117
:1008B000A0918C01B0918D013091890123E0230F2B
:1008C0002D3720F40196A11DB11D05C026E8230F88
:1008D0000296A11DB11D2093890180938A019093F6
:1008E0008B01A0938C01B0938D0180918E0190912A
:1008F0008F01A0919001B09191010196A11DB11DB0
:1009000080938E0190938F01A0939001B0939101F9
:10091000BF91AF919F918F913F912F910F900FBEFB
:100920000F901F9018951F920F920FB60F921124DF
:100930002F933F934F935F936F937F938F939F93E7
:10094000AF93BF93EF93FF938091880187FF05C01A
:1009500010928500109284001BC020918801022E05
:10096000000C330B8091540290E02817390784F46F
:1009700080918801082E000C990BFC01EE0FFF1FDF
:100980008E0F9F1FFC01E05DFD4F808186FD15C02D
:10099000809188018F5F8093880120918801022EC9
:1009A000000C330B8091540290E028173907C4F4EF
:1009B000809188018C3064F113C080918801082EE9
:1009C000000C990BFC01EE0FFF1F8E0F9F1FFC0107
:1009D000E05DFD4F808160E08F730E947202D8CF8E
:1009E0008091840090918500049680349C4918F48D
:1009F00080E49CE905C08091840090918500049674
:100A000090938900809388008FEF809388013BC08A
:100A1000209184003091850080918801082E000C7F
:100A2000990BFC01EE0FFF1F8E0F9F1FFC01E05D75
:100A3000FD4F81819281820F931F90938900809353
:100A4000880080918801082E000C990BFC01EE0FA4
:100A5000FF1F8E0F9F1FFC01E05DFD4F808186FF11
:100A600012C080918801082E000C990BFC01EE0F3A
:100A7000FF1F8E0F9F1FFC01E05DFD4F808161E035
:100A80008F730E947202FF91EF91BF91AF919F917E
:100A90008F917F916F915F914F913F912F910F9027
:100AA0000FBE0F901F90189510929601109295010D
:100AB00088EE93E0A0E0B0E08093970190939801D6
:100AC000A0939901B0939A018AE091E090939401E8
:100AD0008093930185EC90E09093A00180939F0117
:100AE00084EC90E09093A2018093A10180EC90E0CF
:100AF0009093A4018093A30181EC90E09093A601D0
:100B00008093A50182EC90E09093A8018093A701C7
:100B100086EC90E09093AA018093A9011092AC0119
:100B20001092AD011092AE011092AF01809154026B
:100B30008C30A0F491E0980F90935402809355026A
:100B400090E0FC01EE0FFF1F8E0F9F1FFC01E05D88
:100B5000FD4F88EB9BE09283818308958FEF809314
:100B600055020895789484B5826084BD84B581600F
:100B700084BD85B5826085BD85B5816085BD809168
:100B80006E00816080936E001092810080918100E0
:100B900082608093810080918100816080938100D8
:100BA000809180008160809380008091B10084609A
:100BB0008093B1008091B00081608093B0008091FB
:100BC0007A00846080937A0080917A0082608093BA
:100BD0007A0080917A00816080937A0080917A0017
:100BE000806880937A001092C100E091A301F09197
:100BF000A40182E08083E0919F01F091A001108226
:100C0000E091A101F091A2018FEC80831092AB01E1
:100C1000E091A701F091A80186E08083E091A50111
:100C2000F091A601808180618083E091A501F0911F
:100C3000A601808188608083E091A501F091A601E2
:100C4000808180688083E091A501F091A601808178
:100C50008F7D8083809155028C3008F051C061E017
:100C60008BE00E94A10280915502E82FF0E09F01E5
:100C7000220F331FE20FF31FE05DFD4F9081907C48
:100C80009B60908310925602109257026CE00E9473
:100C9000DF079CE0899FB001112440E050E09B01F8
:100CA000240F351FF901EE0FFF1F2E0F3F1FF90113
:100CB000E05DFD4F908196FD16C04F5F5F4F4C3059
:100CC000510569F781110FC01092800082E0809376
:100CD00081001092850010928400B19A80916F007B
:100CE000826080936F00E0915502F0E0CF01880FA1
:100CF000991FE80FF91FE05DFD4F808180648083BC
:100D000061E08DE00E94A10260E084E00E94A10207
:100D100060E085E00E94A10260E086E00E94A102FE
:100D2000FF24F394CC24C394D12C8BE191E00E9456
:100D30004B0380919201811114C06DE070E08091AD
:100D40000401909105010E94D503843B910511F4A3
:100D5000F092920190930501809304010E94020396
:100D6000E8CF8BE391E00E944B03809192018823AE
:100D700009F4A2C084E00E944902EC01019751F4F9
:100D800085E00E944902892B29F486E00E944902ED
:100D9000892B29F184E00E944902892B31F485E0F6
:100DA0000E944902019709F48AC084E00E94490226
:100DB000019709F48DC084E00E944902892B09F053
:100DC00098C085E00E944902892B09F092C086E014
:100DD0000E944902019709F08CC0C4E0D0E0D09392
:100DE0000301C093020182E491E00E9439038091E3
:100DF0000201909103010E94590388E191E00E9451
:100E00003903C0910401D0910501009102011091B4
:100E100003010230110549F124F40130110551F0AC
:100E200040C00330110581F104301105D1F588E689
:100E300091E039C08BE491E00E944B03CE010E9407
:100E40005903CA35D10529F460E08DE00E94720291
:100E500004C0CB35D1050CF02197CE010E948C0047
:100E6000D0920101C092000120C083E591E00E9470
:100E70004B036DE070E0CE010E94D503EC011093AE
:100E800001010093000111C08CE591E00E944B0329
:100E900080910001909101019093030180930201E0
:100EA00004C080E791E00E944B03D0930501C093FA
:100EB00004010E94020359CF0E94160236CF86E039
:100EC0000E944902892B09F070CFC2E0D0E087CFA1
:100ED00085E00E944902019709F06DCF86E00E94EB
:100EE0004902892B09F067CFC0910001D09101011F
:100EF00076CFCFEFDFEF73CF052E97FB1EF4009474
:100F00000E94930757FD07D00E94AE0707FC03D04D
:100F10004EF40C94930750954095309521953F4F92
:100F20004F4F5F4F089590958095709561957F4FD5
:100F30008F4F9F4F08950E94D007A59F900DB49F9B
:100F4000900DA49F800D911D11240895B7FF0C945E
:100F50009B070E949B07821B930B0895A1E21A2E08
:100F6000AA1BBB1BFD010DC0AA1FBB1FEE1FFF1F4D
:100F7000A217B307E407F50720F0A21BB30BE40B9D
:100F8000F50B661F771F881F991F1A9469F76095E4
:100F90007095809590959B01AC01BD01CF0108959E
:100FA000A29FB001B39FC001A39F700D811D1124AA
:100FB000911DB29F700D811D1124911D0895991BE3
:100FC00079E004C0991F961708F0961B881F7A9540
:100FD000C9F780950895EE0FFF1F0590F491E02D5D
:100FE000099481E090E0F8940C94F607F894FFCF10
:100FF000FFFFFFFF960000000000A70110013E0167
:10100000F4016F014D0161010D0A004365727261C7
:101010006E646F20706F722064656661756C7420F9
:10102000616C20696E6963696172004C6973746FE9
:10103000210065737461646F3A20004162726972C5
:101040003A20004365727261723A2000436F6E74F9
:10105000696E7561723A200050617573613A2000C3
:1010600045737461646F206E6F206964656E746986
:0810700066696361646F000012
:107E0000112484B714BE81FFF0D085E080938100F7
:107E100082E08093C00088E18093C10086E0809377
:107E2000C20080E18093C4008EE0C9D0259A86E02C
:107E300020E33CEF91E0309385002093840096BBD3
:107E4000B09BFECF1D9AA8958150A9F7CC24DD24C4
:107E500088248394B5E0AB2EA1E19A2EF3E0BF2EE7
:107E6000A2D0813461F49FD0082FAFD0023811F036
:107E7000013811F484E001C083E08DD089C08234E0
:107E800011F484E103C0853419F485E0A6D080C0E4
:107E9000853579F488D0E82EFF2485D0082F10E0AE
:107EA000102F00270E291F29000F111F8ED06801E7
:107EB0006FC0863521F484E090D080E0DECF843638
:107EC00009F040C070D06FD0082F6DD080E0C81688
:107ED00080E7D80618F4F601B7BEE895C0E0D1E017
:107EE00062D089930C17E1F7F0E0CF16F0E7DF06D8
:107EF00018F0F601B7BEE89568D007B600FCFDCFD4
:107F0000A601A0E0B1E02C9130E011968C91119780
:107F100090E0982F8827822B932B1296FA010C0160
:107F200087BEE89511244E5F5F4FF1E0A038BF0790
:107F300051F7F601A7BEE89507B600FCFDCF97BE46
:107F4000E89526C08437B1F42ED02DD0F82E2BD052
:107F50003CD0F601EF2C8F010F5F1F4F84911BD097
:107F6000EA94F801C1F70894C11CD11CFA94CF0C13
:107F7000D11C0EC0853739F428D08EE10CD085E9AC
:107F80000AD08FE07ACF813511F488E018D01DD067
:107F900080E101D065CF982F8091C00085FFFCCF94
:107FA0009093C60008958091C00087FFFCCF809118
:107FB000C00084FD01C0A8958091C6000895E0E648
:107FC000F0E098E1908380830895EDDF803219F02E
:107FD00088E0F5DFFFCF84E1DECF1F93182FE3DFCA
:107FE0001150E9F7F2DF1F91089580E0E8DFEE27F6
:047FF000FF270994CA
:027FFE00040479
:0400000300007E007B
:00000001FF
