:100000000C945D000C9429040C9402040C9485005B
:100010000C9485000C9485000C9485000C9485004C
:100020000C9485000C9485000C9485000C9450046D
:100030000C9485000C9485000C9485000C9485002C
:100040000C94B8030C9485000C9486030C94600304
:100050000C9485000C9485000C9485000C9485000C
:100060000C9485000C9485000000000024002700FB
:100070002A0000000000250028002B0004040404CE
:100080000404040402020202020203030303030342
:10009000010204081020408001020408102001021F
:1000A00004081020000000080002010000030407FB
:1000B0000000000000000000110511241FBECFEF5A
:1000C000D8E0DEBFCDBF11E0A0E0B1E0E0E6F0E1B6
:1000D00002C005900D92AE3BB107D9F722E0AEEB1E
:1000E000B1E001C01D92A339B207E1F710E0CDE500
:1000F000D0E004C02197FE010E942308CC35D1072F
:10010000C9F70E946F050C942E080C940000CF9242
:10011000DF92EF92FF92DC01A03282E0B8070CF090
:100120003EC0B7FD06C0A53BB1052CF0A4EBB0E086
:1001300002C0A0E0B0E08091910228E830E06901BF
:10014000C81AD10887FDD394CC0CDD1CCC0CDD1C67
:100150000D2C000CEE08FF088091920228E532E099
:10016000281B310987FD3395220F331F220F331FC0
:10017000A901330F660B770B9A01AB012C193D09CE
:100180004E095F090E94DE0724EB30E040E050E0BA
:100190000E94B407C20ED31EE41EF51ED601909134
:1001A00090029C3098F58091910248E850E0481BFD
:1001B000510987FD5395440F551F440F551FA41730
:1001C000B5078CF08091920228E532E0281B3109B6
:1001D00087FD3395220F331F220F331FAD012A17DE
:1001E0003B070CF4A90142505109440F551F2FB78A
:1001F000F894892F90E0FC01EE0FFF1F8E0F9F1FD8
:10020000FC01E559FD4F528341832FBFFF90EF90D2
:10021000DF90CF9008958230C8F4E82FF0E0EE0F21
:10022000FF1FEC5FFE4F71836083813041F080914E
:1002300069008C7F826080936900E89A08958091BC
:100240006900837F886080936900E99A0895CF925E
:10025000DF92EF92FF920F931F93CF93DF936C0186
:100260007A018B01C0E0D0E0CE15DF0581F0D80126
:100270006D918D01D601ED91FC910190F081E02D01
:10028000C6010995892B11F02196EECF7E01C70199
:10029000DF91CF911F910F91FF90EF90DF90CF9062
:1002A0000895089580E090E00895FC01538D448DF9
:1002B000252F30E0842F90E0821B930B541710F011
:1002C000CF96089501970895FC01918D828D98171E
:1002D00061F0828DDF01A80FB11D5D968C91928D2A
:1002E0009F5F9F73928F90E008958FEF9FEF089527
:1002F000FC01918D828D981731F0828DE80FF11DF0
:10030000858D90E008958FEF9FEF0895FC01918D0A
:10031000228D892F90E0805C9F4F821B91098F7303
:10032000992708958EEC91E00E94860121E0892BA7
:1003300009F420E0822F0895FC01848DDF01A80FCD
:10034000B11DA35ABF4F2C91848D90E001968F73FD
:100350009927848FA689B7892C93A089B1898C911C
:10036000837080648C93938D848D981306C002886B
:10037000F389E02D80818F7D80830895EF92FF9235
:100380000F931F93CF93DF93EC0181E0888F9B8DB8
:100390008C8D981305C0E889F989808185FD26C078
:1003A000F62E0B8D10E00F5F1F4F0F731127E02EFD
:1003B0008C8DE8120CC00FB607FCFACFE889F989DA
:1003C000808185FFF5CFCE010E949C01F1CF8B8DFE
:1003D000FE01E80FF11DE35AFF4FF0829FB7F8943A
:1003E0000B8FEA89FB89808180620AC09FB7F894ED
:1003F000EE89FF896083E889F98980818370806450
:1004000080839FBF81E090E0DF91CF911F910F919A
:10041000FF90EF900895CF93DF93EC01888D8823B0
:10042000C9F0EA89FB89808185FD05C0A889B98961
:100430008C9186FD0FC00FB607FCF5CF808185FF3C
:10044000F2CFA889B9898C9185FFEDCFCE010E94AA
:100450009C01E7CFDF91CF91089580E090E0892B58
:1004600029F00E94920181110C940000089590E0FF
:10047000FC01EC55FF4F2491FC01E057FF4F3491F4
:10048000FC01E458FF4FE491EE2309F43CC0222321
:1004900039F1233091F038F42130A9F0223001F500
:1004A00084B58F7D12C0273091F02830A1F0243020
:1004B000B9F4809180008F7D03C0809180008F7798
:1004C000809380000DC084B58F7784BD09C0809172
:1004D000B0008F7703C08091B0008F7D8093B00013
:1004E000F0E0EE0FFF1FEE58FF4FA591B4919FB7BC
:1004F000F894611104C08C913095382302C0EC91BE
:100500003E2B3C939FBF0895CF93DF9390E0FC0177
:10051000E057FF4F2491FC01E458FF4F849188235A
:1005200061F190E0880F991FFC01E859FF4FC591D8
:10053000D491FC01EE58FF4FA591B491611109C00F
:100540009FB7F8948881209582238883EC912E238D
:100550000BC0623061F49FB7F8948881322F3095D8
:1005600083238883EC912E2B2C939FBF06C08FB7DB
:10057000F894E8812E2B28838FBFDF91CF910895C7
:100580003FB7F8948091C4019091C501A091C60134
:10059000B091C70126B5A89B05C02F3F19F0019661
:1005A000A11DB11D3FBFBA2FA92F982F8827820FF9
:1005B000911DA11DB11DBC01CD0142E0660F771F49
:1005C000881F991F4A95D1F708958F929F92AF92F5
:1005D000BF92CF92DF92EF92FF926B017C010E945B
:1005E000C0024B015C01C114D104E104F104F1F03B
:1005F0000E94C002DC01CB0188199909AA09BB0934
:10060000883E9340A105B10570F321E0C21AD108DC
:10061000E108F10888EE880E83E0981EA11CB11C49
:10062000C114D104E104F10419F7DDCFFF90EF907C
:10063000DF90CF90BF90AF909F908F9008950895D6
:10064000009769F0FC0101900020E9F73197AF01B4
:10065000481B590BBC018EEC91E00C94270180E003
:1006600090E00895CF93DF930E942003EC018AE18C
:1006700091E00E9420038C0F9D1FDF91CF91089580
:100680008DE191E00E9420031092C9011092C801EF
:1006900081E090E0909303018093020108958BE341
:1006A00091E00E94200381E090E09093C901809343
:1006B000C801109203011092020108950E942908B6
:1006C0001F920F920FB60F9211242F933F934F93C7
:1006D0005F936F937F938F939F93AF93BF93EF93AA
:1006E000FF938EEC91E00E949C01FF91EF91BF91EE
:1006F000AF919F918F917F916F915F914F913F91BA
:100700002F910F900FBE0F901F9018951F920F9270
:100710000FB60F9211242F938F939F93EF93FF9314
:10072000E091DE01F091DF018081E091E401F09140
:10073000E50182FD12C090818091E7018F5F8F7388
:100740002091E801821751F0E091E701F0E0E253D7
:10075000FE4F958F8093E70101C08081FF91EF915B
:100760009F918F912F910F900FBE0F901F90189512
:100770001F920F920FB60F9211242F933F938F93D6
:100780009F93AF93BF938091C0019091C101A091BD
:10079000C201B091C3013091BF0123E0230F2D3777
:1007A00020F40196A11DB11D05C026E8230F029675
:1007B000A11DB11D2093BF018093C0019093C10181
:1007C000A093C201B093C3018091C4019091C5016F
:1007D000A091C601B091C7010196A11DB11D8093E2
:1007E000C4019093C501A093C601B093C701BF9106
:1007F000AF919F918F913F912F910F900FBE0F90CE
:100800001F9018951F920F920FB60F9211242F93DD
:100810003F934F935F936F937F938F939F93AF9388
:10082000BF93EF93FF93E0910601F09107010995C3
:10083000FF91EF91BF91AF919F918F917F916F91B8
:100840005F914F913F912F910F900FBE0F901F908E
:1008500018951F920F920FB60F9211242F933F936A
:100860004F935F936F937F938F939F93AF93BF93B8
:10087000EF93FF93E0910401F09105010995FF9139
:10088000EF91BF91AF919F918F917F916F915F9108
:100890004F913F912F910F900FBE0F901F90189581
:1008A0001F920F920FB60F9211242F933F934F93E5
:1008B0005F936F937F938F939F93AF93BF93EF93C8
:1008C000FF938091BE0187FF05C0109285001092B2
:1008D00084001BC02091BE01022E000C330B8091BE
:1008E0008F0290E02817390784F48091BE01082E0A
:1008F000000C990BFC01EE0FFF1F8E0F9F1FFC01D8
:10090000E559FD4F808186FD15C08091BE018F5F46
:100910008093BE012091BE01022E000C330B80910A
:100920008F0290E028173907C4F48091BE018C3003
:1009300064F113C08091BE01082E000C990BFC01DC
:10094000EE0FFF1F8E0F9F1FFC01E559FD4F8081A9
:1009500060E08F730E943702D8CF8091840090911D
:100960008500049680349C4918F480E49CE905C015
:1009700080918400909185000496909389008093E3
:1009800088008FEF8093BE013BC02091840030919E
:1009900085008091BE01082E000C990BFC01EE0F22
:1009A000FF1F8E0F9F1FFC01E559FD4F8181928132
:1009B000820F931F90938900809388008091BE01DD
:1009C000082E000C990BFC01EE0FFF1F8E0F9F1FCE
:1009D000FC01E559FD4F808186FF12C08091BE0168
:1009E000082E000C990BFC01EE0FFF1F8E0F9F1FAE
:1009F000FC01E559FD4F808161E08F730E94370251
:100A0000FF91EF91BF91AF919F918F917F916F91E6
:100A10005F914F913F912F910F900FBE0F901F90BC
:100A200018951092D1011092D00188EE93E0A0E0C9
:100A3000B0E08093D2019093D301A093D401B093FE
:100A4000D5018CE091E09093CF018093CE0185ECAD
:100A500090E09093DB018093DA0184EC90E0909336
:100A6000DD018093DC0180EC90E09093DF018093C6
:100A7000DE0181EC90E09093E1018093E00182EC53
:100A800090E09093E3018093E20186EC90E09093F4
:100A9000E5018093E4011092E7011092E8011092C1
:100AA000E9011092EA0180918F028C30A0F491E06C
:100AB000980F90938F028093900290E0FC01EE0FCC
:100AC000FF1F8E0F9F1FFC01E559FD4F88EB9BE038
:100AD0009283818308958FEF809390020895CF933E
:100AE000DF93CDB7DEB7A1970FB6F894DEBF0FBE88
:100AF000CDBF789484B5826084BD84B5816084BDA7
:100B000085B5826085BD85B5816085BD80916E00AB
:100B1000816080936E0010928100809181008260DC
:100B20008093810080918100816080938100809119
:100B300080008160809380008091B1008460809308
:100B4000B1008091B00081608093B00080917A0004
:100B5000846080937A0080917A00826080937A002A
:100B600080917A00816080937A0080917A00806819
:100B700080937A001092C100E091DE01F091DF01D4
:100B800082E08083E091DA01F091DB011082E09154
:100B9000DC01F091DD018FEC80831092E601E091A1
:100BA000E201F091E30186E08083E091E001F091C1
:100BB000E101808180618083E091E001F091E101B9
:100BC000808188608083E091E001F091E101808183
:100BD00080688083E091E001F091E10180818F7D68
:100BE0008083809190028C3008F051C061E08BE0EE
:100BF0000E94840280919002E82FF0E09F01220F72
:100C0000331FE20FF31FE559FD4F9081907C9B60ED
:100C1000908310929102109292026CE00E94170849
:100C20009CE0899FB001112440E050E09B01240F1B
:100C3000351FF901EE0FFF1F2E0F3F1FF901E55978
:100C4000FD4F908196FD16C04F5F5F4F4C305105B0
:100C500069F781110FC01092800082E080938100BB
:100C60001092850010928400B19A80916F0082608A
:100C700080936F00E0919002F0E0CF01880F991F00
:100C8000E80FF91FE559FD4F80818064808361E0A2
:100C900089E00E94840261E088E00E94840260E0B2
:100CA00082E00E94840260E083E00E9484026FE49C
:100CB00073E080E00E940B0160E473E081E00E9439
:100CC0000B011092CD011092CC011092CB01109229
:100CD000CA0182E0682E712C94E0E92EF12CCC241C
:100CE000C394D12C3AE0832E912CA12CB12C88E511
:100CF00091E00E94320380E691E00E9432038091ED
:100D0000CC019091CD018230910521F128F400971A
:100D100061F0019779F063C08430910509F440C017
:100D200080F1059709F44FC05AC08EE691E00E9409
:100D3000320331C086E791E00E9432038091CA01FC
:100D40009091CB01029709F04EC07092CD01609254
:100D5000CC0149C080E891E00E9432038091CA0131
:100D60009091CB018130910539F4E3E0F0E0F0930C
:100D7000CD01E093CC0137C00397A9F585E090E061
:100D80001AC08CE891E00E9432038091CA019091D0
:100D9000CB01039741F5F092CD01E092CC0123C045
:100DA00086E991E00E9432038091CA019091CB01C3
:100DB0008130910529F49093CD018093CC0113C02B
:100DC000029789F4DBCF81EA91E00E94320380919F
:100DD000CA019091CB0182309105D9F6B6CF8CEA49
:100DE00091E00E9432038091020190910301892BCE
:100DF00051F10091000110910101043B1105C4F46F
:100E0000C8010E9487000F5F1F4F6AE070E080E01A
:100E100090E00E94E502043B110591F71093010157
:100E200000930001E3E0F0E0F093CB01E093CA010E
:100E30008091000190910101843B910521F4D092B1
:100E4000CB01C092CA018091C8019091C901892B40
:100E500029F100910001109101010115110529F4FA
:100E6000D092CB01C092CA0119C010161106B4F479
:100E70007092CB016092CA01C8010E9487000150A4
:100E800011096AE070E080E090E00E94E50201153F
:100E9000110591F7109201011092000120900001BC
:100EA00030900101032C000C4408550857FE20C067
:100EB0006DE28EEC91E00E94BE0122273327A9014A
:100EC000221933094409550919A28E010F5D1F4FDC
:100ED000CA01B901A50194010E94E607605DF8010D
:100EE00062938F01211531054105510589F715C020
:100EF000A201910119A28E010F5D1F4FCA01B90114
:100F0000A50194010E94E607605DF80162938F01DC
:100F1000211531054105510589F7C8010E942003BB
:100F20008AE191E00E9420038091000190910101EB
:100F3000843B910531F461E089E00E94370260E072
:100F400007C0892B41F460E089E00E94370261E02C
:100F500088E00E94370264EF71E080E090E00E9438
:100F6000E5020E942D02C3CE052E97FB1EF40094CD
:100F70000E94CB0757FD07D00E94E60707FC03D06D
:100F80004EF40C94CB0750954095309521953F4FEA
:100F90004F4F5F4F089590958095709561957F4F65
:100FA0008F4F9F4F08950E940808A59F900DB49FF2
:100FB000900DA49F800D911D11240895B7FF0C94EE
:100FC000D3070E94D307821B930B0895A1E21A2E28
:100FD000AA1BBB1BFD010DC0AA1FBB1FEE1FFF1FDD
:100FE000A217B307E407F50720F0A21BB30BE40B2D
:100FF000F50B661F771F881F991F1A9469F7609574
:101000007095809590959B01AC01BD01CF0108952D
:10101000A29FB001B39FC001A39F700D811D112439
:10102000911DB29F700D811D1124911D0895991B72
:1010300079E004C0991F961708F0961B881F7A95CF
:10104000C9F780950895EE0FFF1F0590F491E02DEC
:10105000099481E090E0F8940C942E08F894FFCF66
:101060005A0001001F031F0300000000BE012701FA
:1010700055010B028601640178010D0A00496E7466
:10108000657272757063696F6E2045787465726EF3
:1010900061204365727261723A2000496E74657214
:1010A00072757063696F6E2045787465726E612029
:1010B00041627269723A20006C6F6F70696E6700EE
:1010C0004576656E742068616E646C657200535479
:1010D0005F49444C450053545F434C4F53454400D3
:1010E00053545F4F50454E4E494E470053545F4F47
:1010F00050454E45440053545F434C4F53494E476F
:101100000053545F53544F50504544004E6F742069
:0E11100068616E646C656420737461746500C0
:00000001FF
