:100000001DC02CC02BC02AC029C028C027C026C0B4
:1000100025C024C023C022C021C021C01FC01EC0D3
:100020001DC01CC01BC01AC019C064C065C066C01A
:1000300068C069C06BC06DC06FC070C011241FBEA6
:10004000CFE5D1E0DEBFCDBF20E0A0E6B0E001C04B
:100050001D92A436B207E1F780D0C9C0D1CF1F925C
:100060000F920FB60F9211248F939F93809160008F
:1000700090916100892BA1F498B380E4892788BB13
:1000800088E290E09093610080936000809162002C
:10009000909163000197909363008093620009C080
:1000A000809160009091610001979093610080932E
:1000B00060009F918F910F900FBE0F901F90189529
:1000C0008FE081BB80EE81BB82E080BF83EC86BF86
:1000D00081E089BF85E083BF7894089522B3207FB3
:1000E00022BB019789309105E0F48B5E9F4F8F937F
:1000F0009F930895939A0895929A089582B38C607D
:100100000FC0919A089582B38A600AC082B3866054
:1001100007C082B38E6004C0909A089582B389604C
:1001200082BB0895CF93DF93EB0128B3205828BBFF
:10013000D5DF81EE91E80197F1F700C0000088B3A8
:10014000805888BBCE01CADF81EE91E80197F1F7B4
:1001500000C00000DF91CF91089588E290E0909375
:100160006100809360008EE190E090936300809343
:100170006200A6DFCAE0D0E0E0916200F091630087
:100180008091620090916300BE010AD09C013327E8
:10019000CF01BE0105D0862FB90190E0C3DFECCFBF
:1001A00097FB072E16F4009406D077FD08D00BD0ED
:1001B00007FC05D03EF4909581959F4F089570956A
:1001C00061957F4F0895AA1BBB1B51E107C0AA1F71
:1001D000BB1FA617B70710F0A61BB70B881F991FE8
:1001E0005A95A9F780959095BC01CD010895F89492
:0201F000FFCF3F
:00000001FF
