:100000000C945D000C946F040C9448040C948500CF
:100010000C9485000C9485000C9485000C9485004C
:100020000C9485000C9485000C9485000C94960427
:100030000C9485000C9485000C9485000C9485002C
:100040000C94FE030C9485000C94CC030C94A60332
:100050000C9485000C9485000C9485000C9485000C
:100060000C9485000C94850000000008000201003B
:100070000003040700000000000000000000000072
:10008000250028002B0000000000240027002A0083
:10009000040404040404040402020202020203032E
:1000A0000303030301020408102040800102040836
:1000B0001020010204081020570511241FBECFEFA5
:1000C000D8E0DEBFCDBF11E0A0E0B1E0E0E2FEE0AD
:1000D00002C005900D92AA35B107D9F722E0AAE532
:1000E000B1E001C01D92AF32B207E1F710E0CDE5FB
:1000F000D0E004C02197FE010E940307CC35D10750
:10010000C9F70E94B5050C940E070C940000CF921D
:10011000DF92EF92FF92DC01A03282E0B8070CF090
:100120003EC0B7FD06C0A53BB1052CF0A4EBB0E086
:1001300002C0A0E0B0E080912D0228E830E0690123
:10014000C81AD10887FDD394CC0CDD1CCC0CDD1C67
:100150000D2C000CEE08FF0880912E0228E532E0FD
:10016000281B310987FD3395220F331F220F331FC0
:10017000A901330F660B770B9A01AB012C193D09CE
:100180004E095F090E94CA0624EB30E040E050E0CF
:100190000E94A006C20ED31EE41EF51ED601909149
:1001A0002C029C3098F580912D0248E850E0481BC5
:1001B000510987FD5395440F551F440F551FA41730
:1001C000B5078CF080912E0228E532E0281B31091A
:1001D00087FD3395220F331F220F331FAD012A17DE
:1001E0003B070CF4A90142505109440F551F2FB78A
:1001F000F894892F90E0FC01EE0FFF1F8E0F9F1FD8
:10020000FC01E95FFD4F528341832FBFFF90EF90C8
:10021000DF90CF900895FC01538D448D252F30E061
:10022000842F90E0821B930B541710F0CF96089503
:1002300001970895FC01918D828D981761F0828D50
:10024000DF01A80FB11D5D968C91928D9F5F9F730A
:10025000928F90E008958FEF9FEF0895FC01918DAC
:10026000828D981731F0828DE80FF11D858D90E019
:1002700008958FEF9FEF0895FC01918D228D892FB6
:1002800090E0805C9F4F821B91098F73992708959E
:10029000FC01848DDF01A80FB11DA35ABF4F2C9123
:1002A000848D90E001968F739927848FA689B789F2
:1002B0002C93A089B1898C91837080648C93938DE9
:1002C000848D981306C00288F389E02D80818F7D8C
:1002D00080830895EF92FF920F931F93CF93DF9344
:1002E000EC0181E0888F9B8D8C8D981305C0E88987
:1002F000F989808185FD26C0F62E0B8D10E00F5FF9
:100300001F4F0F731127E02E8C8DE8120CC00FB613
:1003100007FCFACFE889F989808185FFF5CFCE0106
:100320000E944801F1CF8B8DFE01E80FF11DE35AC9
:10033000FF4FF0829FB7F8940B8FEA89FB89808189
:1003400080620AC09FB7F894EE89FF896083E889CC
:10035000F98980818370806480839FBF81E090E011
:10036000DF91CF911F910F91FF90EF900895CF9360
:10037000DF93EC01888D8823C9F0EA89FB898081AD
:1003800085FD05C0A889B9898C9186FD0FC00FB67F
:1003900007FCF5CF808185FFF2CFA889B9898C91C0
:1003A00085FFEDCFCE010E944801E7CFDF91CF91CD
:1003B00008958AE691E00E943C0121E0892B09F42E
:1003C00020E0822F089580E090E0892B29F00E94A0
:1003D000D90181110C9400000895809164019091DD
:1003E0006501892B39F481E090E090936501809359
:1003F0006401089510926501109264010895CF92EE
:10040000DF92EF92FF920F931F93CF93DF936C01D4
:100410007A018B01C0E0D0E0CE15DF0581F0D80174
:100420006D918D01D601ED91FC910190F081E02D4F
:10043000C6010995892B11F02196EECF7E01C701E7
:10044000DF91CF911F910F91FF90EF90DF90CF90B0
:100450000895089580E090E0089590E0FC01E85947
:10046000FF4F2491FC01EC55FF4F3491FC01E05704
:10047000FF4FE491EE2309F43CC0222339F12330ED
:1004800091F038F42130A9F0223001F584B58F7D48
:1004900012C0273091F02830A1F02430B9F48091B7
:1004A00080008F7D03C0809180008F7780938000D3
:1004B0000DC084B58F7784BD09C08091B0008F775F
:1004C00003C08091B0008F7D8093B000F0E0EE0F0C
:1004D000FF1FE458FF4FA591B4919FB7F8946111A5
:1004E00004C08C913095382302C0EC913E2B3C9394
:1004F0009FBF08953FB7F89480916001909161018A
:10050000A0916201B091630126B5A89B05C02F3F61
:1005100019F00196A11DB11D3FBFBA2FA92F982F29
:100520008827820F911DA11DB11DBC01CD0142E0A4
:10053000660F771F881F991F4A95D1F708958F92EC
:100540009F92AF92BF92CF92DF92EF92FF926B0198
:100550007C010E947A024B015C01C114D104E104C8
:10056000F104F1F00E947A02DC01CB0188199909AB
:10057000AA09BB09883E9340A105B10570F321E0AB
:10058000C21AD108E108F10888EE880E83E0981EAF
:10059000A11CB11CC114D104E104F10419F7DDCF91
:1005A000FF90EF90DF90CF90BF90AF909F908F9093
:1005B00008950895009769F0FC0101900020E9F783
:1005C0003197AF01481B590BBC018AE691E00C94AE
:1005D000FF0180E090E00895CF93DF930E94DA025C
:1005E000EC0188E191E00E94DA028C0F9D1FDF91FF
:1005F000CF9108950F931F93CF93DF93EC018091D8
:100600006801909169018230910579F128F4009791
:1006100069F0019781F092C08430910509F463C0BC
:1006200008F44CC0059709F47DC088C08BE191E0C7
:100630000E94EC0255C083E291E00E94EC0261E06E
:1006400089E00E942D0260E088E00E942D028091E6
:10065000660190916701029709F070C082E090E016
:10066000909369018093680169C08DE291E00E94D6
:10067000EC028E011016110664F401501109C80134
:100680000E94870064E170E080E090E00E949F0299
:10069000F1CFCE01D7FF02C080E090E0C81BD90B9C
:1006A00080916601909167018130910519F483E092
:1006B00090E0D6CF039709F041C031C089E391E0C3
:1006C0000E94EC0261E088E00E942D0260E089E077
:1006D0000E942D028091660190916701039771F548
:1006E00084E090E0BDCF83E491E00E94EC02C43B43
:1006F000D1055CF42196CE010E94870064E170E090
:1007000080E090E00E949F02F2CF8091660190917C
:1007100067018130910509F4A3CF029779F485E050
:1007200090E09ECF8EE491E00E94EC028091660101
:10073000909167018230910589F690CFCE01DF91CB
:10074000CF911F910F9108950E9409071F920F9258
:100750000FB60F9211242F933F934F935F936F9394
:100760007F938F939F93AF93BF93EF93FF938AE60B
:1007700091E00E944801FF91EF91BF91AF919F914D
:100780008F917F916F915F914F913F912F910F903A
:100790000FBE0F901F9018951F920F920FB60F92D9
:1007A00011242F938F939F93EF93FF93E0917A01FE
:1007B000F0917B018081E0918001F091810182FDC7
:1007C00012C09081809183018F5F8F73209184018B
:1007D000821751F0E0918301F0E0E659FE4F958FCA
:1007E0008093830101C08081FF91EF919F918F9150
:1007F0002F910F900FBE0F901F9018951F920F9280
:100800000FB60F9211242F933F938F939F93AF9323
:10081000BF9380915C0190915D01A0915E01B091C8
:100820005F0130915B0123E0230F2D3720F4019607
:10083000A11DB11D05C026E8230F0296A11DB11D03
:1008400020935B0180935C0190935D01A0935E0116
:10085000B0935F018091600190916101A09162016C
:10086000B09163010196A11DB11D80936001909329
:100870006101A0936201B0936301BF91AF919F9119
:100880008F913F912F910F900FBE0F901F90189551
:100890001F920F920FB60F9211242F933F934F93F5
:1008A0005F936F937F938F939F93AF93BF93EF93D8
:1008B000FF93E0910201F09103010995FF91EF91FF
:1008C000BF91AF919F918F917F916F915F914F9168
:1008D0003F912F910F900FBE0F901F9018951F9270
:1008E0000F920FB60F9211242F933F934F935F9364
:1008F0006F937F938F939F93AF93BF93EF93FF93E8
:10090000E0910001F09101010995FF91EF91BF91F4
:10091000AF919F918F917F916F915F914F913F9197
:100920002F910F900FBE0F901F9018951F920F924E
:100930000FB60F9211242F933F934F935F936F93B2
:100940007F938F939F93AF93BF93EF93FF93809188
:100950005A0187FF05C010928500109284001BC0C9
:1009600020915A01022E000C330B80912B0290E053
:100970002817390784F480915A01082E000C990B2E
:10098000FC01EE0FFF1F8E0F9F1FFC01E95FFD4F63
:10099000808186FD15C080915A018F5F80935A0136
:1009A00020915A01022E000C330B80912B0290E013
:1009B00028173907C4F480915A018C3064F113C0B0
:1009C00080915A01082E000C990BFC01EE0FFF1FBD
:1009D0008E0F9F1FFC01E95FFD4F808160E08F73E8
:1009E0000E942D02D8CF80918400909185000496BA
:1009F00080349C4918F480E49CE905C0809184000F
:100A000090918500049690938900809388008FEFE1
:100A100080935A013BC020918400309185008091E1
:100A20005A01082E000C990BFC01EE0FFF1F8E0FD0
:100A30009F1FFC01E95FFD4F81819281820F931F0F
:100A4000909389008093880080915A01082E000CB1
:100A5000990BFC01EE0FFF1F8E0F9F1FFC01E95F3A
:100A6000FD4F808186FF12C080915A01082E000C34
:100A7000990BFC01EE0FFF1F8E0F9F1FFC01E95F1A
:100A8000FD4F808161E08F730E942D02FF91EF91F5
:100A9000BF91AF919F918F917F916F915F914F9196
:100AA0003F912F910F900FBE0F901F9018951092AD
:100AB0006D0110926C0188EE93E0A0E0B0E08093AD
:100AC0006E0190936F01A0937001B09371018AE061
:100AD00091E090936B0180936A0185EC90E0909394
:100AE00077018093760184EC90E090937901809374
:100AF000780180EC90E090937B0180937A0181EC07
:100B000090E090937D0180937C0182EC90E0909343
:100B10007F0180937E0186EC90E090938101809329
:100B2000800110928301109284011092850110922D
:100B3000860180912B028C30A0F491E0980F909365
:100B40002B0280932C0290E0FC01EE0FFF1F8E0F12
:100B50009F1FFC01E95FFD4F88EB9BE0928381833F
:100B600008958FEF80932C020895CF93DF93CDB734
:100B7000DEB7A1970FB6F894DEBF0FBECDBF789455
:100B800084B5826084BD84B5816084BD85B5826092
:100B900085BD85B5816085BD80916E008160809343
:100BA0006E001092810080918100826080938100AC
:100BB00080918100816080938100809180008160BC
:100BC000809380008091B10084608093B100809117
:100BD000B00081608093B00080917A00846080933F
:100BE0007A0080917A00826080937A0080917A0006
:100BF000816080937A0080917A00806880937A0087
:100C00001092C100E7EAF0E02491E3E9F0E084917A
:100C10008823C9F090E0880F991FFC01EA57FF4F25
:100C200045915491FC01E458FF4FA591B4919FB7B1
:100C3000F894FA0180812095822380838C91E22FA1
:100C4000E823EC939FBF8DEE91E090930301809396
:100C5000020180916900837F886080936900E99A2E
:100C600080910401909105010E94FA0203E010E0D6
:100C70008AE0882E912CA12CB12C80916401909156
:100C80006501029770F410936701009366018091EB
:100C90000401909105010E94FA029093050180934E
:100CA0000401C0900401D09005010D2C000CEE0849
:100CB000FF08F7FE20C06DE28AE691E00E946A011B
:100CC00022273327A9012C193D094E095F0919A2D2
:100CD000CE0181967C01CA01B901A50194010E944F
:100CE000D206605DF70162937F0121153105410550
:100CF000510589F715C0A701960119A2CE01819669
:100D00007C01CA01B901A50194010E94D206605D6F
:100D1000F70162937F01211531054105510589F7DE
:100D2000C7010E94DA0288E191E00E94DA0268EECF
:100D300073E080E090E00E949F020E94E3019DCF5B
:100D4000052E97FB1EF400940E94B70657FD07D0AE
:100D50000E94D20607FC03D04EF40C94B7065095BF
:100D60004095309521953F4F4F4F5F4F0895909597
:100D70008095709561957F4F8F4F9F4F08950E948A
:100D8000F406A59F900DB49F900DA49F800D911D1A
:100D900011240895B7FF0C94BF060E94BF06821B62
:100DA000930B0895A1E21A2EAA1BBB1BFD010DC0D7
:100DB000AA1FBB1FEE1FFF1FA217B307E407F5070B
:100DC00020F0A21BB30BE40BF50B661F771F881FE7
:100DD000991F1A9469F760957095809590959B017D
:100DE000AC01BD01CF010895A29FB001B39FC00126
:100DF000A39F700D811D1124911DB29F700D811D47
:100E00001124911D0895EE0FFF1F0590F491E02D20
:100E1000099481E090E0F8940C940E07F894FFCFC9
:100E2000D902D902B400000000006A01FF010B01E1
:100E3000B7013C011A012E010D0A0053545F4944C9
:100E40004C450053545F434C4F5345440053545F4B
:100E50004F50454E4E494E470053545F4F50454EFC
:100E600045440053545F434C4F53494E470053543D
:0A0E70005F53544F505045440000FA
:00000001FF
