:100000000C945D000C946B040C9444040C948500D7
:100010000C9485000C9485000C9485000C9485004C
:100020000C9485000C9485000C9485000C9492042B
:100030000C9485000C9485000C9485000C9485002C
:100040000C94FA030C9485000C94C8030C94A2033E
:100050000C9485000C9485000C9485000C9485000C
:100060000C9485000C9485000000000024002700FB
:100070002A0000000000250028002B0004040404CE
:100080000404040402020202020203030303030342
:10009000010204081020408001020408102001021F
:1000A00004081020000000080002010000030407FB
:1000B0000000000000000000530511241FBECFEF18
:1000C000D8E0DEBFCDBF11E0A0E0B1E0E0E7FEE0A8
:1000D00002C005900D92AA31B107D9F721E0AAE13B
:1000E000B1E001C01D92AB3EB207E1F710E0CDE5F3
:1000F000D0E004C02197FE010E942B07CC35D10728
:10010000C9F70E94B1050C9436070C940000CF92F9
:10011000DF92EF92FF92DC01A03282E0B8070CF090
:100120003EC0B7FD06C0A53BB1052CF0A4EBB0E086
:1001300002C0A0E0B0E08091E90128E830E0690168
:10014000C81AD10887FDD394CC0CDD1CCC0CDD1C67
:100150000D2C000CEE08FF088091EA0128E532E042
:10016000281B310987FD3395220F331F220F331FC0
:10017000A901330F660B770B9A01AB012C193D09CE
:100180004E095F090E94E60624EB30E040E050E0B3
:100190000E94BC06C20ED31EE41EF51ED60190912D
:1001A000E8019C3098F58091E90148E850E0481B4F
:1001B000510987FD5395440F551F440F551FA41730
:1001C000B5078CF08091EA0128E532E0281B31095F
:1001D00087FD3395220F331F220F331FAD012A17DE
:1001E0003B070CF4A90142505109440F551F2FB78A
:1001F000F894892F90E0FC01EE0FFF1F8E0F9F1FD8
:10020000FC01ED53FE4F528341832FBFFF90EF90CF
:10021000DF90CF900895FC01538D448D252F30E061
:10022000842F90E0821B930B541710F0CF96089503
:1002300001970895FC01918D828D981761F0828D50
:10024000DF01A80FB11D5D968C91928D9F5F9F730A
:10025000928F90E008958FEF9FEF0895FC01918DAC
:10026000828D981731F0828DE80FF11D858D90E019
:1002700008958FEF9FEF0895FC01918D228D892FB6
:1002800090E0805C9F4F821B91098F73992708959E
:10029000FC01848DDF01A80FB11DA35ABF4F2C9123
:1002A000848D90E001968F739927848FA689B789F2
:1002B0002C93A089B1898C91837080648C93938DE9
:1002C000848D981306C00288F389E02D80818F7D8C
:1002D00080830895EF92FF920F931F93CF93DF9344
:1002E000EC0181E0888F9B8D8C8D981305C0E88987
:1002F000F989808185FD26C0F62E0B8D10E00F5FF9
:100300001F4F0F731127E02E8C8DE8120CC00FB613
:1003100007FCFACFE889F989808185FFF5CFCE0106
:100320000E944801F1CF8B8DFE01E80FF11DE35AC9
:10033000FF4FF0829FB7F8940B8FEA89FB89808189
:1003400080620AC09FB7F894EE89FF896083E889CC
:10035000F98980818370806480839FBF81E090E011
:10036000DF91CF911F910F91FF90EF900895CF9360
:10037000DF93EC01888D8823C9F0EA89FB898081AD
:1003800085FD05C0A889B9898C9186FD0FC00FB67F
:1003900007FCF5CF808185FFF2CFA889B9898C91C0
:1003A00085FFEDCFCE010E944801E7CFDF91CF91CD
:1003B000089586E291E00E943C0121E0892B09F436
:1003C00020E0822F089580E090E0892B29F00E94A0
:1003D000D90181110C9400000895CF92DF92EF9221
:1003E000FF920F931F93CF93DF936C017A018B01E0
:1003F000C0E0D0E0CE15DF0581F0D8016D918D0110
:10040000D601ED91FC910190F081E02DC601099596
:10041000892B11F02196EECF7E01C701DF91CF919C
:100420001F910F91FF90EF90DF90CF900895089566
:1004300080E090E0089590E0FC01EC55FF4F24919E
:10044000FC01E057FF4F3491FC01E458FF4FE49169
:10045000EE2309F43CC0222339F1233091F038F423
:100460002130A9F0223001F584B58F7D12C02730EC
:1004700091F02830A1F02430B9F4809180008F7D74
:1004800003C0809180008F77809380000DC084B579
:100490008F7784BD09C08091B0008F7703C08091B1
:1004A000B0008F7D8093B000F0E0EE0FFF1FEE589C
:1004B000FF4FA591B4919FB7F894611104C08C913E
:1004C0003095382302C0EC913E2B3C939FBF08959A
:1004D000CF93DF9390E0FC01E057FF4F2491FC01A4
:1004E000E458FF4F8491882361F190E0880F991FB1
:1004F000FC01E859FF4FC591D491FC01EE58FF4F24
:10050000A591B491611109C09FB7F8948881209595
:1005100082238883EC912E230BC0623061F49FB755
:10052000F8948881322F309583238883EC912E2B89
:100530002C939FBF06C08FB7F894E8812E2B288399
:100540008FBFDF91CF9108953FB7F894809120013C
:1005500090912101A0912201B091230126B5A89B81
:1005600005C02F3F19F00196A11DB11D3FBFBA2F45
:10057000A92F982F8827820F911DA11DB11DBC01A5
:10058000CD0142E0660F771F881F991F4A95D1F76A
:1005900008958F929F92AF92BF92CF92DF92EF9287
:1005A000FF926B017C010E94A4024B015C01C1140B
:1005B000D104E104F104F1F00E94A402DC01CB01BA
:1005C00088199909AA09BB09883E9340A105B1057C
:1005D00070F321E0C21AD108E108F10888EE880E14
:1005E00083E0981EA11CB11CC114D104E104F104E4
:1005F00019F7DDCFFF90EF90DF90CF90BF90AF90D5
:100600009F908F90089508958091240190912501E5
:10061000892B39F481E090E09093250180932401A7
:100620000895109225011092240108958091E80107
:100630008C3008F051C061E08BE00E94680280912C
:10064000E801E82FF0E09F01220F331FE20FF31FB4
:10065000ED53FE4F9081907C9B6090831092E90156
:100660001092EA016CE00E941F079CE0899FB00194
:10067000112440E050E09B01240F351FF901EE0FDB
:10068000FF1F2E0F3F1FF901ED53FE4F908196FD86
:1006900016C04F5F5F4F4C30510569F781110FC095
:1006A0001092800082E08093810010928500109269
:1006B0008400B19A80916F00826080936F00E09116
:1006C000E801F0E0CF01880F991FE80FF91FED5303
:1006D000FE4F80818064808361E08DE00E9468022B
:1006E00061E089E00E94680261E088E00E9468029F
:1006F00061E087E00E94680260E083E00E94680297
:1007000084E093E09093030180930201809169005B
:10071000837F886080936900E99A0895009769F063
:10072000FC0101900020E9F73197AF01481B590BFC
:10073000BC0186E291E00C94ED0180E090E0089528
:100740000E9431071F920F920FB60F9211242F9320
:100750003F934F935F936F937F938F939F93AF9349
:10076000BF93EF93FF9386E291E00E944801FF91CF
:10077000EF91BF91AF919F918F917F916F915F9119
:100780004F913F912F910F900FBE0F901F90189592
:100790001F920F920FB60F9211242F938F939F9356
:1007A000EF93FF93E0913601F09137018081E09162
:1007B0003C01F0913D0182FD12C0908180913F018A
:1007C0008F5F8F7320914001821751F0E0913F01BC
:1007D000F0E0EA5DFE4F958F80933F0101C080817C
:1007E000FF91EF919F918F912F910F900FBE0F90DE
:1007F0001F9018951F920F920FB60F9211242F93EE
:100800003F938F939F93AF93BF9380911C019091DF
:100810001D01A0911E01B0911F0130911B0123E029
:10082000230F2D3720F40196A11DB11D05C026E828
:10083000230F0296A11DB11D20931B0180931C0163
:1008400090931D01A0931E01B0931F018091200180
:1008500090912101A0912201B09123010196A11D47
:10086000B11D8093200190932101A0932201B093A8
:100870002301BF91AF919F918F913F912F910F9045
:100880000FBE0F901F9018951F920F920FB60F92E8
:1008900011242F933F934F935F936F937F938F9385
:1008A0009F93AF93BF93EF93FF93E0910201F09179
:1008B00003010995FF91EF91BF91AF919F918F91A6
:1008C0007F916F915F914F913F912F910F900FBE4C
:1008D0000F901F9018951F920F920FB60F92112430
:1008E0002F933F934F935F936F937F938F939F9338
:1008F000AF93BF93EF93FF93E0910001F09101015B
:100900000995FF91EF91BF91AF919F918F917F9149
:100910006F915F914F913F912F910F900FBE0F906C
:100920001F9018951F920F920FB60F9211242F93BC
:100930003F934F935F936F937F938F939F93AF9367
:10094000BF93EF93FF9380911A0187FF05C0109228
:100950008500109284001BC020911A01022E000C09
:10096000330B8091E70190E02817390784F48091D8
:100970001A01082E000C990BFC01EE0FFF1F8E0FC1
:100980009F1FFC01ED53FE4F808186FD15C08091B5
:100990001A018F5F80931A0120911A01022E000C18
:1009A000330B8091E70190E028173907C4F4809158
:1009B0001A018C3064F113C080911A01082E000CCA
:1009C000990BFC01EE0FFF1F8E0F9F1FFC01ED53D3
:1009D000FE4F808160E08F730E941B02D8CF809110
:1009E000840090918500049680349C4918F480E43A
:1009F0009CE905C0809184009091850004969093B5
:100A00008900809388008FEF80931A013BC020916A
:100A100084003091850080911A01082E000C990BFA
:100A2000FC01EE0FFF1F8E0F9F1FFC01ED53FE4FC9
:100A300081819281820F931F909389008093880017
:100A400080911A01082E000C990BFC01EE0FFF1F7C
:100A50008E0F9F1FFC01ED53FE4F808186FF12C059
:100A600080911A01082E000C990BFC01EE0FFF1F5C
:100A70008E0F9F1FFC01ED53FE4F808161E08F734D
:100A80000E941B02FF91EF91BF91AF919F918F91B7
:100A90007F916F915F914F913F912F910F900FBE7A
:100AA0000F901F901895109229011092280188EE3E
:100AB00093E0A0E0B0E080932A0190932B01A093F3
:100AC0002C01B0932D0188E091E090932701809351
:100AD000260185EC90E0909333018093320184EC01
:100AE00090E0909335018093340180EC90E09093F6
:100AF00037018093360181EC90E090933901809327
:100B0000380182EC90E090933B0180933A0186ECAF
:100B100090E090933D0180933C0110923F01109230
:100B2000400110924101109242018091E7018C3006
:100B3000A0F491E0980F9093E7018093E80190E092
:100B4000FC01EE0FFF1F8E0F9F1FFC01ED53FE4FA8
:100B500088EB9BE09283818308958FEF8093E80177
:100B60000895CF93DF93CDB7DEB7A1970FB6F89472
:100B7000DEBF0FBECDBF789484B5826084BD84B5DE
:100B8000816084BD85B5826085BD85B5816085BD88
:100B900080916E00816080936E0010928100809140
:100BA00081008260809381008091810081608093C8
:100BB0008100809180008160809380008091B100ED
:100BC00084608093B1008091B00081608093B00018
:100BD00080917A00846080937A0080917A008260AC
:100BE00080937A0080917A00816080937A0080916E
:100BF0007A00806880937A001092C1000E941603E8
:100C00000E94160304EB10E08AE0882E912CA12CA0
:100C1000B12CC0902401D0902501C114D104D1F48D
:100C2000043B110559F461E089E00E941B0260E079
:100C300088E00E941B0204EB10E033C00F5F1F4FDF
:100C4000C8010E94870064E170E080E090E00E94AB
:100C5000C902E6CF81E0C816D10491F478011E14D0
:100C60001F040CF07FC091E0E91AF108C7010E944F
:100C7000870064E170E080E090E00E94C902EFCF5D
:100C80000115110559F461E088E00E941B0260E043
:100C900089E00E941B0200E010E003C0043B110544
:100CA00011F20D2C000CEE08FF08F7FE20C06DE2DB
:100CB00086E291E00E946A0122273327A9012C19BC
:100CC0003D094E095F0919A2FE01B1967F01CA01D3
:100CD000B901A50194010E94EE06605DF7016293DF
:100CE0007F01211531054105510589F715C0A7017F
:100CF000960119A2CE0181967C01CA01B901A50114
:100D000094010E94EE06605DF70162937F01211558
:100D100031054105510589F7C7010E948E0342E064
:100D200050E066E171E086E291E00E94ED0161E051
:100D300087E00E941B0264EF71E080E090E00E9477
:100D4000C90260E087E00E941B0264EF71E080E06E
:100D500090E00E94C90264E670E080E090E00E94AA
:100D6000C90257CFC80117FF02C080E090E0081BFE
:100D7000190B09F096CF87CF052E97FB1EF4009430
:100D80000E94D30657FD07D00E94EE0607FC03D051
:100D90004EF40C94D30650954095309521953F4FD5
:100DA0004F4F5F4F089590958095709561957F4F57
:100DB0008F4F9F4F08950E941007A59F900DB49FDD
:100DC000900DA49F800D911D11240895B7FF0C94E0
:100DD000DB060E94DB06821B930B0895A1E21A2E0C
:100DE000AA1BBB1BFD010DC0AA1FBB1FEE1FFF1FCF
:100DF000A217B307E407F50720F0A21BB30BE40B1F
:100E0000F50B661F771F881F991F1A9469F7609565
:100E10007095809590959B01AC01BD01CF0108951F
:100E2000A29FB001B39FC001A39F700D811D11242B
:100E3000911DB29F700D811D1124911D0895991B64
:100E400079E004C0991F961708F0961B881F7A95C1
:100E5000C9F780950895EE0FFF1F0590F491E02DDE
:100E6000099481E090E0F8940C943607F894FFCF51
:100E700003030303000000006A01ED010B01B70149
:0A0E80003C011A012E010D0A0000CA
:00000001FF
