:100000000C94CF010C947E070C9457070C94FD07B9
:100010000C94FD070C94FD070C94F7010C94F70168
:100020000C94F7010C94F7010C94F7010C94F70170
:100030000C94F7010C94F7010C94F7010C94F70160
:100040000C940D070C94F7010C94CB070C94A507A6
:100050000C94F7010C94F7010C94F7010C94F70140
:100060000C94F7010C94F70100407A10F35A00A0A9
:10007000724E18090010A5D4E80000E87648170071
:1000800000E40B54020000CA9A3B000000E1F505B1
:10009000000080969800000040420F000000A086FB
:1000A00001000000102700000000E803000000002D
:1000B0006400000000000A000000000001000000D1
:1000C00000002C76D888DC674F0823DFC1DFAE59EB
:1000D000E1B1B796E5E3E453C63AE651997696E87E
:1000E000E6C28426EB898C9B62ED407C6FFCEFBC02
:1000F0009C9F40F2BAA56FA5F490055A2AF75C932D
:100100006B6CF9676DC11BFCE0E40D47FEF520E662
:10011000B500D0ED902E0300943577050080841E45
:10012000080000204E0A000000C80C333333330FA0
:10013000986E12831141EF8D2114893BE65516CF3D
:10014000FEE6DB18D1844B381BF77C1D901DA4BB49
:10015000E424203284725E228100C9F124ECA1E5FE
:100160003D27000000000000005F000000070007BE
:1001700000147F147F14242A7F2A12231308646238
:1001800036495522500005030000001C22410000A2
:1001900041221C0014083E081408083E08080050BC
:1001A00030000008080808080060600000201008FF
:1001B00004023E5149453E00427F400042615149A0
:1001C000462141454B311814127F102745454539CA
:1001D0003C4A494930017109050336494949360607
:1001E0004949291E00363600000056360000081422
:1001F0002241001414141414004122140802015165
:100200000906324979413E7E1111117E7F494949E3
:10021000363E414141227F4141221C7F49494941AB
:100220007F090909013E4149497A7F0808087F0092
:10023000417F41002040413F017F081422417F401F
:100240004040407F020C027F7F0408107F3E414106
:10025000413E7F090909063E4151215E7F09192966
:1002600046464949493101017F01013F4040403F35
:100270001F2040201F3F4038403F6314081463078D
:10028000087008076151494543007F41410002045D
:100290000810200041417F00040201020440404058
:1002A0004040000102040020545454787F484444E4
:1002B000383844444420384444487F38545454180F
:1002C000087E0901020C5252523E7F080404780055
:1002D000447D40002040443D007F10284400004100
:1002E0007F40007C041804787C0804047838444477
:1002F00044387C14141408081414187C7C08040472
:10030000084854545420043F4440203C4040207C42
:100310001C2040201C3C4030403C44281028440C09
:100320005050503C4464544C440008364100000096
:100330007F00000041360800100808100800000087
:10034000000000000000240027002A000000000038
:10035000250028002B0000000000230026002900B3
:10036000040404040404040402020202020203035B
:100370000303030301020408102040800102040863
:1003800010200102040810200000000800020100F3
:10039000000304070000000000000000070811240B
:1003A0001FBECFEFD8E0DEBFCDBF11E0A0E0B1E0CF
:1003B000E0E3F2E202C005900D92AE37B107D9F743
:1003C00022E0AEE7B1E001C01D92A539B207E1F726
:1003D00011E0CFECD1E004C02197FE010E94101182
:1003E000CE3CD107C9F70E9446080C9416110C9414
:1003F0000000833081F028F4813099F08230A9F038
:1004000008958730A9F08830C9F08430B1F4809124
:1004100080008F7D03C0809180008F778093800063
:10042000089584B58F7784BD089584B58F7DFBCF03
:100430008091B0008F778093B00008958091B000D4
:100440008F7DF9CFCF93DF93E0E9F3E08491ECE780
:10045000F3E0D491E8E6F3E0C491CC23A1F081115C
:100460000E94F901EC2FF0E0EE0FFF1FEA5AFC4F5B
:10047000A591B491EC91ED2381E090E009F480E046
:10048000DF91CF91089580E090E0FACF1F93CF9352
:10049000DF93282F30E0F901E857FC4F8491F901F0
:1004A000EC58FC4FD491F901E05AFC4FC491CC2395
:1004B000A9F0162F81110E94F901EC2FF0E0EE0F48
:1004C000FF1FE45BFC4FA591B4918FB7F894EC91BA
:1004D000111108C0D095DE23DC938FBFDF91CF913F
:1004E0001F910895DE2BF8CFCF93DF9390E0FC01AE
:1004F000EC58FC4F2491805A9C4FFC018491882336
:10050000D1F090E0880F991FFC01EE5BFC4FA591A4
:10051000B491FC01E45BFC4FC591D49161110EC014
:100520009FB7F8948C91E22FE0958E238C932881CD
:10053000E223E8839FBFDF91CF9108958FB7F894AE
:10054000EC91E22BEC938FBFF6CF3FB7F8948091FC
:10055000A6019091A701A091A801B091A90126B58B
:10056000A89B05C02F3F19F00196A11DB11D3FBFEB
:10057000BA2FA92F982F8827BC01CD01620F711DBA
:10058000811D911D42E0660F771F881F991F4A95B4
:10059000D1F708958F929F92AF92BF92CF92DF9240
:1005A000EF92FF924B015C010E94A5026B017C015E
:1005B0000E94A5026C197D098E099F09683E73404F
:1005C00081059105A8F321E0821A9108A108B108DC
:1005D00088EEC80E83E0D81EE11CF11C8114910442
:1005E000A104B10429F7FF90EF90DF90CF90BF9066
:1005F000AF909F908F9008950895AF92BF92CF9241
:10060000DF92EF92FF920F931F93CF93DF936C01D2
:100610007B018B01040F151FEB015E01AE18BF08B3
:10062000C017D10759F06991D601ED91FC91019065
:10063000F081E02DC6010995892B79F7C501DF917D
:10064000CF911F910F91FF90EF90DF90CF90BF90CF
:10065000AF900895FC01538D448D252F30E0842FF9
:1006600090E0821B930B541710F0CF9608950197DA
:100670000895FC01918D828D981761F0A28DAE0FC7
:10068000BF2FB11D5D968C91928D9F5F9F73928F4E
:1006900090E008958FEF9FEF0895FC01918D828D7A
:1006A000981731F0828DE80FF11D858D90E0089547
:1006B0008FEF9FEF0895FC01918D228D892F90E09F
:1006C000805C9F4F821B91098F73992708958AEA56
:1006D00091E00E945B0321E0892B09F420E0822F46
:1006E000089580E090E0892B29F00E946703811132
:1006F0000C9400000895FC01A48DA80FB92FB11D22
:10070000A35ABF4F2C91848D90E001968F73992747
:10071000848FA689B7892C93A089B1898C91837025
:1007200080648C93938D848D981306C00288F3891E
:10073000E02D80818F7D80830895EF92FF920F934B
:100740001F93CF93DF93EC0181E0888F9B8D8C8D7D
:1007500098131AC0E889F989808185FF15C09FB771
:10076000F894EE89FF896083E889F9898081837034
:10077000806480839FBF81E090E0DF91CF911F91E3
:100780000F91FF90EF900895F62E0B8D10E00F5F04
:100790001F4F0F731127E02E8C8D8E110CC00FB6DA
:1007A00007FCFACFE889F989808185FFF5CFCE0172
:1007B0000E947B03F1CFEB8DEC0FFD2FF11DE35A6F
:1007C000FF4FF0829FB7F8940B8FEA89FB898081F5
:1007D0008062CFCF682F8AEA91E00C949D03CF937B
:1007E000DF93EC01888D8823B9F0AA89BB89E88959
:1007F000F9898C9185FD03C0808186FD0DC00FB6FF
:1008000007FCF7CF8C9185FFF2CF808185FFEDCF7C
:10081000CE010E947B03E9CFDF91CF910895089527
:1008200090E080E008958E3008F08E5087708064EC
:1008300080937C0080917A00806480937A0080911C
:100840007A0086FDFCCF6091780070917900072EC8
:10085000000C880B990B0E949F0F20E030E040EACB
:1008600050E40E94541020E030EC4FE754E40E9422
:10087000FC0E2AE939E949E150E40E948A0E20E0A1
:1008800030E040E251E40E9454102CE53FE842E899
:100890005FE30E9454100895EF92FF920F931F930D
:1008A000CF93DF93EC01042F8E810E94460260E01B
:1008B00088850E944602FC80ED8018E0602F661F4C
:1008C0006627661F8E2D0E944602000F61E08F2D65
:1008D0000E94460260E08F2D0E944602115071F77F
:1008E00061E08885DF91CF911F910F91FF90EF908C
:1008F0000C944602CF93DF93C7E4D2E01C8690E0CD
:100900006B8529E3629F612D1124669570E06F5F0E
:100910007F4F0E94C6108D8740E860E0CE010E94A4
:100920004C044D85406460E0CE01DF91CF910C9482
:100930004C04FB0101900020E9F73197AF01461B01
:10094000570BDC01ED91FC910280F381E02D0994BD
:100950008F929F92AF92BF920F931F93CF93DF938B
:10096000CDB7DEB7A1970FB6F894DEBF0FBECDBFEF
:1009700019A2423008F44AE08E010F5D1F4F842E09
:10098000912CB12CA12CA50194010E94DA10E62F24
:10099000B901CA01EA3004F5E05DD801EE938D019A
:1009A000232B242B252B79F790E080E0109729F05A
:1009B000BD018AEA91E00E949904A1960FB6F894CD
:1009C000DEBF0FBECDBFDF91CF911F910F91BF90C2
:1009D000AF909F908F900895E95CDFCFBC01990F95
:1009E000880B990B4AE00C94A804CF93DF93BC01C9
:1009F0008AEA91E00E949904EC0162E271E08AEADD
:100A000091E00E9499048C0F9D1FDF91CF91089572
:100A10008091900181110CC085E291E00E94F50463
:100A200061E089E00E94460281E080939001089590
:100A300088E391E00E94F50460E089E00E944602AC
:100A40001092900108954F925F926F927F928F92D1
:100A50009F92AF92BF92CF92DF92EF92FF926B0183
:100A60007C01AC019B010E94C1106BE471E081111B
:100A700026C046015701E894B7F82FEF3FEF4FE744
:100A80005FE7C501B4010E94C11081110CC02FEFB6
:100A90003FEF4FE75FE7C501B4010E94F70E6FE437
:100AA00071E0181664F02FEF3FEF4FE75FE4C701E6
:100AB000B6010E944F10181694F463E571E08AEABB
:100AC00091E0FF90EF90DF90CF90BF90AF909F901C
:100AD0008F907F906F905F904F900C9499042FEFC0
:100AE0003FEF4FE75FECC701B6010E94F70E87FDAD
:100AF000E4CF20E030E0A901C701B6010E94F70E63
:100B0000B12CA12C87FF08C08DE20E94EA035C0192
:100B1000F7FAF094F7F8F0942AE037ED43EA5BE354
:100B2000C701B6010E948B0E2B013C010E946E0F83
:100B30006B017C010E949D0F9B01AC01C301B201BE
:100B40000E948A0E2B013C014AE0C701B6010E94B7
:100B5000A8047C01EA0CFB1C8EE20E94EA03E80E6A
:100B6000F91E20E030E040E251E4C301B2010E94EE
:100B700054102B013C010E946E0F4B01B12CA12C93
:100B80004AE0C501B4010E94A804E80EF91EC5019F
:100B9000B4010E949D0F9B01AC01C301B2010E94F0
:100BA0008A0E20E030E040E251E40E9454100E949E
:100BB0006E0F90E080E04AE00E94A8048E0D9F1D19
:100BC000FF90EF90DF90CF90BF90AF909F908F906D
:100BD0007F906F905F904F9008950C949904CF92FE
:100BE000DF92EF92FF920F931F93CF93DF9300D08A
:100BF00000D01F92CDB7DEB767FD66C07C01862F9F
:100C000090E0603208F44FC0809725E0289FB00143
:100C1000299F700D11246E597E4F45E050E0CE01A2
:100C200001960E94130C8E010F5F1F4F680185E033
:100C3000C80ED11CF80141918F0161E0C7010E94EB
:100C40004C040C151D05B1F740E061E0C7010E949E
:100C50004C04F701848590E00696628570E00E945E
:100C6000C6108487892B79F4858590E00196638589
:100C700029E3629F612D1124669570E06F5F7F4FBD
:100C80000E94C610858781E090E00F900F900F9032
:100C90000F900F90DF91CF911F910F91FF90EF90E8
:100CA000DF90CF900895FC013796EE0FFF1FEE0DF9
:100CB000FF1D008111810115110509F0B7CF45E035
:100CC00050E062E671E0ABCF90E080E0DECF4F9283
:100CD0005F926F927F92AF92BF92CF92DF92EF922C
:100CE000FF920F931F93CF93DF93CDB7DEB760973B
:100CF0000FB6F894DEBF0FBECDBF2D873E874F875E
:100D0000588B38018E010F5F1F4F21E041E00E9498
:100D1000F50B80E00E947A0467E571E087E492E0D9
:100D20000E94ED0581E00E947A0466E671E087E4A6
:100D300092E00E94ED0560E287E492E00E94EF05F8
:100D4000B80187E492E00E94ED0582E00E947A04F7
:100D50000D5F1F4F21E041E06D857E858F8598896D
:100D60000E94F50B69E671E087E492E00E94ED05D0
:100D700060E287E492E00E94EF05B80187E492E028
:100D80000E94ED0583E00E947A040D5F1F4F21E071
:100D900041E0C301B7010E94F50B6CE671E087E406
:100DA00092E00E94ED0560E287E492E00E94EF0588
:100DB000B80187E492E00E94ED0584E00E947A0485
:100DC0000D5F1F4F21E041E0C601B5010E94F50B08
:100DD0006FE671E087E492E00E94ED0560E287E44F
:100DE00092E00E94EF05B80187E492E00E94ED05D1
:100DF00060960FB6F894DEBF0FBECDBFDF91CF91E6
:100E00001F910F91FF90EF90DF90CF90BF90AF9028
:100E10007F906F905F904F9008951F920F920FB642
:100E20000F9211242F933F938F939F93AF93BF9370
:100E30008091A2019091A301A091A401B091A5017C
:100E40003091A10123E0230F2D3758F50196A11D04
:100E5000B11D2093A1018093A2019093A301A093BF
:100E6000A401B093A5018091A6019091A701A09142
:100E7000A801B091A9010196A11DB11D8093A60101
:100E80009093A701A093A801B093A901BF91AF913E
:100E90009F918F913F912F910F900FBE0F901F90B8
:100EA000189526E8230F0296A11DB11DD2CF1F92DF
:100EB0000F920FB60F9211242F933F934F935F938E
:100EC0006F937F938F939F93AF93BF93EF93FF9312
:100ED000E0910201F09103010995FF91EF91BF911B
:100EE000AF919F918F917F916F915F914F913F91C2
:100EF0002F910F900FBE0F901F9018951F920F9279
:100F00000FB60F9211242F933F934F935F936F93DC
:100F10007F938F939F93AF93BF93EF93FF93E09152
:100F20000001F09101010995FF91EF91BF91AF91FF
:100F30009F918F917F916F915F914F913F912F91F1
:100F40000F900FBE0F901F9018951F920F920FB623
:100F50000F9211242F933F934F935F936F937F933F
:100F60008F939F93AF93BF93EF93FF938AEA91E0A0
:100F70000E947B03FF91EF91BF91AF919F918F9161
:100F80007F916F915F914F913F912F910F900FBE85
:100F90000F901F9018951F920F920FB60F92112469
:100FA0002F938F939F93EF93FF93E091BA01F0916A
:100FB000BB018081E091C001F091C10182FD1BC0A5
:100FC00090818091C3018F5F8F732091C40182173C
:100FD00041F0E091C301F0E0E655FE4F958F80931C
:100FE000C301FF91EF919F918F912F910F900FBEB1
:100FF0000F901F9018958081F4CF1F920F920FB61B
:101000000F9211240F900FBE0F901F901895EAEACF
:10101000F1E01382128288EE93E0A0E0B0E08483D6
:101020009583A683B78388E091E09183808385ECE4
:1010300090E09587848784EC90E09787868780ECA2
:1010400090E0918B808B81EC90E0938B828B82EC93
:1010500090E0958B848B86EC90E0978B868B118E3D
:10106000128E138E148EE7E4F2E0138212828AE16C
:1010700091E09183808383E0848384E0858385E0AD
:10108000868386E0878387E080870895CF93DF9308
:10109000CDB7DEB72E970FB6F894DEBF0FBECDBF2B
:1010A000789484B5826084BD84B5816084BD85B543
:1010B000826085BD85B5816085BD80916E0081604F
:1010C00080936E00109281008091810082608093F5
:1010D00081008091810081608093810080918000F7
:1010E0008160809380008091B10084608093B10022
:1010F0008091B00081608093B00080917A0084601C
:1011000080937A0080917A00826080937A00809147
:101110007A00816080937A0080917A008068809361
:101120007A001092C10084E58093510280E380939D
:101130005202109250021092530210925402E5E5AE
:10114000F2E080E4DF011D928A95E9F761E0809189
:101150004B020E94740261E080914C020E94740272
:1011600061E080914D020E94740261E080914E0224
:101170000E94740261E080914F020E94740261E05B
:1011800080914E020E94460261E080914F020E94CF
:10119000460260E080914E020E94460264E670E0E2
:1011A00080E090E00E94CA0261E080914E020E94BD
:1011B000460241E260E087E492E00E944C0443E191
:1011C00060E087E492E00E944C048091500242EC7F
:1011D000813039F440EE60E087E492E00E944C04F4
:1011E00045E060E087E492E00E944C0440E260E069
:1011F00087E492E00E944C0449E060E087E492E0DA
:101200000E944C0480E00E947A041A821982809124
:10121000520286958695869590915102899FC001CC
:101220001124E981FA81E817F90768F440E061E0E8
:1012300087E492E00E944C0429813A812F5F3F4F5E
:101240003A832983E4CF80E00E947A0448E060E09A
:1012500087E492E00E944C044CE060E087E492E076
:101260000E944C0464E670E080E090E00E94CA02B4
:1012700040E860E087E492E00E944C0440E460E0D3
:1012800087E492E00E944C04E091BA01F091BB0126
:1012900082E08083E091B601F091B7011082E09185
:1012A000B801F091B9018FEC80831092C201E091F6
:1012B000BE01F091BF0186E08083E091BC01F09116
:1012C000BD01808180618083E091BC01F091BD010E
:1012D000808188608083E091BC01F091BD018081B4
:1012E00080688083E091BC01F091BD0180818F7D99
:1012F0008083E0E8F1E080E1DF011D928A95E9F763
:1013000060E081E10E94740260E080E10E9474026A
:1013100060E08FE00E94740260E08EE00E94740240
:1013200060E082E00E94740261E089E00E94740241
:1013300061E08AE00E94740288E095E090930101E8
:1013400080930001809169008C7F826080936900A6
:10135000E89A80E9882E81E0982E90E0292E90E08E
:10136000392E81E190E00E9413042B013C01409250
:10137000910150929201609293017092940180E1E8
:1013800090E00E94130469837A838B839C8360932B
:1013900095017093960180939701909398018FE047
:1013A00090E00E9413046D837E838F8398876093FF
:1013B000990170939A0180939B0190939C018EE018
:1013C00090E00E9413045B016C01A0929D01B09219
:1013D0009E01C0929F01D092A001E1E9F1E0FE8759
:1013E000ED87ED85FE8581919191A191B191FE8767
:1013F000ED8789879A87AB87BC8720E030E040EA99
:1014000051E4BC01CD010E944F10181664F020E099
:1014100030E040EA51EC69857A858B859C850E9495
:10142000F70E87FF04C061E08AE00E9446022D8526
:101430003E85215A3140A9F680919001811177C0F3
:10144000ED80FE800F81188529813A814B815C8176
:10145000C301B2010E9467060E9422029A83898317
:10146000019779F562E771E08AEA91E00E94ED0563
:1014700080E20E94EA0389819A810E94EE046AE771
:1014800071E08AEA91E00E94ED05A981BA81119785
:1014900051F5609191017091920180919301909129
:1014A00094010E94230580E20E94EA038CE791E008
:1014B0000E94F50489819A8101969A838983059710
:1014C00089F668EE73E080E090E00E94CA02211481
:1014D000310409F446CF0E946703882309F441CF01
:1014E0000E9400003ECFE981FA81329749F4609171
:1014F0009501709196018091970190919801D1CFBB
:1015000029813A812330310549F460919901709124
:101510009A0180919B0190919C01C3CF60919D01A4
:1015200070919E0180919F019091A001BACF2FB739
:10153000F8946091A2017091A3018091A40190910F
:10154000A5012FBF28EE33E040E050E00E94DA1002
:10155000672B682B692B09F4AAC08091900188231E
:1015600009F4B5CFC0909101D0909201F091930110
:10157000FD83209194012983609080017090810106
:10158000A0908201B09083019301A501B6018F2F35
:1015900099810E944F1018161CF06301AD82B98228
:1015A000C601AD81B9818093800190938101A093A0
:1015B0008201B0938301C0909501D0909601309143
:1015C00097013D8380919801898360908401709098
:1015D0008501A0908601B09087019301A501B60115
:1015E0008D8199810E944F1018161CF06301AD8205
:1015F000B982C601AD81B981809384019093850140
:10160000A0938601B0938701C0909901D0909A0170
:1016100090919B019D83A0919C01A983609088017A
:1016200070908901A0908A01B0908B019301A5016F
:10163000B601892F9A2F0E944F1018161CF06301D3
:10164000AD82B982C601AD81B98180938801909342
:101650008901A0938A01B0938B01C0909D01D09025
:101660009E01B0919F01BD83E091A001E98360904C
:101670008C0170908D01A0908E01B0908F0193012C
:10168000A501B6018B2F9E2F0E944F1018161CF03B
:101690006301AD82B982C601AD81B98180938C01AD
:1016A00090938D01A0938E01B0938F0110CFA0E88D
:1016B000B1E0BA83A983E981FA8161917191819145
:1016C0009191FA83E9836F01F4E0CF1AD10821E800
:1016D00034E045E35FE30E945410D6016D937D939F
:1016E0008D939C931397E981FA818E169F0619F7C3
:1016F000A0908C01B0908D01C0908E01D0908F0190
:10170000E0908801F090890100918A0110918B018D
:10171000209184013091850140918601509187018B
:10172000609180017091810180918201909183018B
:101730000E9467060E9422029A838983019709F01A
:10174000C6CE62E771E08AEA91E00E94ED0580E290
:101750000E94EA0389819A810E94EE046AE771E09F
:101760008AEA91E00E94ED0529813A812130310514
:10177000C9F4609180017091810180918201909102
:1017800083010E94230580E20E94EA038CE791E036
:101790000E94F504E981FA813196FA83E98335974D
:1017A00081F695CE89819A81029749F460918401EE
:1017B000709185018091860190918701E2CFA98186
:1017C000BA81139749F460918801709189018091E1
:1017D0008A0190918B01D5CF60918C0170918D0120
:1017E00080918E0190918F01CCCFEF920F931F9338
:1017F000CF93DF93E80134E047FD34E1042E000C81
:10180000550B57FF03C0519541955109E32E022F07
:10181000242FAE010E941C0CCE01DF91CF911F91AD
:101820000F91EF900895FB01DC0102C005900D922D
:1018300041505040D8F70895A9E0B0E0E2E2FCE062
:101840000C94590E6A01F22EB02E102FFBE3AF2E2E
:10185000A01608F41BE31F5F012F27E0AE014F5FC6
:101860005F4F0E947B0DBC018981982F9970913048
:1018700009F43FC09BE2E1FC04C09E2D9170E0FCA6
:101880003AC05E2D5071E82FE87083FF46C084E0B7
:10189000911101C083E0EF2DE81B8F1508F0E0E007
:1018A000D6018E2F20E2552351F1992329F0D6013C
:1018B0009C93C60101966C0196012D5F3F4FE2FE9D
:1018C00024C08EE4D6018C9391E411969C931197D9
:1018D00012968C93D9018E2F90E281111BC0E20FDA
:1018E000F32FF11D10828EEF9FEF2996ECE00C9400
:1018F000750E9DE2C6CF90E2C4CF2D938150811129
:10190000FCCFCE0ED11CE0E0D0CF8EE6D6018C937A
:1019100091E6DBCF9D938150E0CF482F447082FF4A
:101920003DC084E0911101C083E08F1510F4EF2DCC
:10193000E81BD6018E2F20E2552309F1992329F0C7
:10194000D6019C93C60101966C0196012D5F3F4F15
:10195000E2FE1BC089E4D6018C938EE411968C9331
:10196000119786E412968C93D9018E2F90E28823EA
:1019700009F4B5CF9D938150FACF2D9381508111F9
:10198000FCCFCE0ED11CE0E0D9CF89E6D6018C93F6
:101990008EE611968C93119786E6E4CF9B0177FF34
:1019A00002C030E020E0A1E0B0E0911102C0B0E060
:1019B000A0E0F9013196AE0FBF1F8B2C912CBB20FC
:1019C00009F461C05401EFEFAE1ABE0AAA0DBB1DA7
:1019D000FA161B0619F014F04F2D4A1B511188C03E
:1019E000E3FC59C07601A42FB0E2A1114FC0C40E90
:1019F000D11C992309F45BC040E0D6011196F60191
:101A000090836D01552309F448C0012F060F9A8178
:101A1000582F507184FF03C0913309F40150101600
:101A20000CF047C0093008F008E0EEE2FE2E5B0142
:101A3000A01AB10885019194819491082F3F320733
:101A400029F4D601FC92F60131966F0162177307F3
:101A500094F1021713077CF5DB01A21BB30BAA2438
:101A6000A394B12CAC0EBD1EAA0DBB1D11968C917A
:101A700021503109D601119628153905F4F0F601E7
:101A800080836D01DBCFB12CA12CA0CFF701B193E6
:101A90007F01A150AACF9111B0CFD601942F50E36E
:101AA00002C05D9391509111FCCFC40ED11C40E057
:101AB000ACCF01E0BACF80E3DBCF6217730731F41C
:101AC000963388F4953311F4552369F0F601808339
:101AD000FD01842F90E2811108C0A40FB11D1C925A
:101AE00090E080E002CF81E3F1CF91938150F3CF7A
:101AF000911183CF8ACF283008F027E03327DA010D
:101B0000990F311D87FD916000966105710539F4CB
:101B100032602E5F3D9330E32A95E1F708959F3FB1
:101B200030F080387105610509F03C5F3C5F3D9302
:101B3000913008F08068911DDF93CF931F930F932E
:101B4000FF92EF92192F987F9695E92F969596958B
:101B5000E90FFF27EE53FF4F99273327EE24FF2489
:101B6000A701E70105900894079428F4360FE71EB3
:101B7000F81E491F511D660F771F881F991F069475
:101B8000A1F70590079428F4E70EF81E491F561F89
:101B9000C11D770F881F991F661F0694A1F7059036
:101BA000079428F4F80E491F561FC71FD11D880F30
:101BB000991F661F771F0694A1F70590079420F4DC
:101BC000490F561FC71FD81F990F661F771F881F01
:101BD0000694A9F784911095177041F0D695C79592
:101BE00057954795F794E7941A95C1F7E8E6F0E022
:101BF00068941590159135916591959105907FE2C6
:101C00007395E118F10A430B560BC90BD009C0F7C5
:101C1000E10CF11E431F561FC91FD01D7EF4703307
:101C200011F48A95E6CFE894015030F0080F0AF4D9
:101C30000027021708F4202F2395022F7A3328F06B
:101C400079E37D932A95E9F710C07D932A9589F66B
:101C5000069497956795379517951794E118F10AAB
:101C6000430B560BC90BD00998F023957E917395C1
:101C70007A3308F070E37C932013B8F77E9170619B
:101C80007D9330F0839571E37D9370E32A95E1F7BE
:101C90001124EF90FF900F911F91CF91DF91992721
:101CA00087FD909508952F923F924F925F926F9289
:101CB0007F928F929F92AF92BF92CF92DF92EF92DC
:101CC000FF920F931F93CF93DF93CDB7DEB7CA1B5D
:101CD000DB0B0FB6F894DEBF0FBECDBF09942A8888
:101CE000398848885F846E847D848C849B84AA8430
:101CF000B984C884DF80EE80FD800C811B81AA81BD
:101D0000B981CE0FD11D0FB6F894DEBF0FBECDBF87
:101D1000ED0108955058BB27AA270E94A20E0C94EB
:101D200015100E94071038F00E940E1020F039F4B0
:101D30009F3F19F426F40C9404100EF4E095E7FB91
:101D40000C94FE0FE92F0E94261058F3BA17620771
:101D500073078407950720F079F4A6F50C944810D2
:101D60000EF4E0950B2EBA2FA02D0B01B9019001B6
:101D70000C01CA01A0011124FF27591B99F0593FFA
:101D800050F4503E68F11A16F040A22F232F342F42
:101D90004427585FF3CF469537952795A795F04090
:101DA0005395C9F77EF41F16BA0B620B730B840BA5
:101DB000BAF09150A1F0FF0FBB1F661F771F881F5D
:101DC000C2F70EC0BA0F621F731F841F48F48795B5
:101DD00077956795B795F7959E3F08F0B0CF9395A7
:101DE000880F08F09927EE0F9795879508950E9420
:101DF000DA0F08F481E008950E94100F0C9415107A
:101E00000E940E1058F00E94071040F029F45F3F26
:101E100029F00C94FE0F51110C9449100C940410ED
:101E20000E94261068F39923B1F3552391F3951B73
:101E3000550BBB27AA2762177307840738F09F5FEB
:101E40005F4F220F331F441FAA1FA9F335D00E2E58
:101E50003AF0E0E832D091505040E695001CCAF7C5
:101E60002BD0FE2F29D0660F771F881FBB1F261788
:101E700037074807AB07B0E809F0BB0B802DBF015F
:101E8000FF2793585F4F3AF09E3F510578F00C942E
:101E9000FE0F0C9449105F3FE4F3983ED4F386950F
:101EA00077956795B795F7959F5FC9F7880F911D4F
:101EB0009695879597F90895E1E0660F771F881F3B
:101EC000BB1F621773078407BA0720F0621B730BEE
:101ED000840BBA0BEE1F88F7E09508950E942E1030
:101EE00088F09F5798F0B92F9927B751B0F0E1F0DB
:101EF000660F771F881F991F1AF0BA95C9F714C08B
:101F0000B13091F00E944810B1E008950C9448104F
:101F1000672F782F8827B85F39F0B93FCCF38695C3
:101F200077956795B395D9F73EF490958095709520
:101F300061957F4F8F4F9F4F0895E89409C097FB9D
:101F40003EF490958095709561957F4F8F4F9F4F90
:101F50009923A9F0F92F96E9BB279395F6958795D4
:101F600077956795B795F111F8CFFAF4BB0F11F497
:101F700060FF1BC06F5F7F4F8F4F9F4F16C088233E
:101F800011F096E911C0772321F09EE8872F762F74
:101F900005C0662371F096E8862F70E060E02AF0B5
:101FA0009A95660F771F881FDAF7880F96958795A1
:101FB00097F90895990F0008550FAA0BE0E8FEEF76
:101FC00016161706E807F907C0F012161306E407FD
:101FD000F50798F0621B730B840B950B39F40A26F6
:101FE00061F0232B242B252B21F408950A2609F4D4
:101FF000A140A6958FEF811D811D089597F99F67D8
:1020000080E870E060E008959FEF80EC0895002480
:102010000A941616170618060906089500240A944D
:1020200012161306140605060895092E0394000CD3
:1020300011F4882352F0BB0F40F4BF2B11F460FF62
:1020400004C06F5F7F4F8F4F9F4F089557FD90588B
:10205000440F551F59F05F3F71F04795880F97FB6C
:10206000991F61F09F3F79F0879508951216130626
:102070001406551FF2CF4695F1DF08C01616170655
:102080001806991FF1CF869571056105089408958A
:10209000E894BB2766277727CB0197F908950E941C
:1020A000DA0F08F48FEF08950E9467100C94151052
:1020B0000E94071038F00E940E1020F0952311F0B6
:1020C0000C94FE0F0C94041011240C9449100E94DF
:1020D000261070F3959FC1F3950F50E0551F629F36
:1020E000F001729FBB27F00DB11D639FAA27F00D71
:1020F000B11DAA1F649F6627B00DA11D661F829F98
:102100002227B00DA11D621F739FB00DA11D621F7C
:10211000839FA00D611D221F749F3327A00D611D99
:10212000231F849F600D211D822F762F6A2F11247B
:102130009F5750409AF0F1F088234AF0EE0FFF1FAE
:10214000BB1F661F771F881F91505040A9F79E3F05
:10215000510580F00C94FE0F0C9449105F3FE4F39E
:10216000983ED4F3869577956795B795F795E7955B
:102170009F5FC1F7FE2B880F911D9695879597F964
:1021800008950E94DA0F880B990B089597FB072E8C
:1021900016F4009407D077FD09D00E94FC1007FCCC
:1021A00005D03EF4909581959F4F08957095619567
:1021B0007F4F0895A1E21A2EAA1BBB1BFD010DC083
:1021C000AA1FBB1FEE1FFF1FA217B307E407F507E7
:1021D00020F0A21BB30BE40BF50B661F771F881FC3
:1021E000991F1A9469F760957095809590959B0159
:1021F000AC01BD01CF010895AA1BBB1B51E107C073
:10220000AA1FBB1FA617B70710F0A61BB70B881F86
:10221000991F5A95A9F780959095BC01CD01089515
:10222000EE0FFF1F0590F491E02D0994F894FFCF75
:10223000FC02FC02000000009D03FD022A03EF03E4
:102240005B0339034D0300000000EF05FD0210049D
:102250000F040D0A004143204D6F646520616374D3
:1022600069766174656421004443204D6F64652084
:1022700061637469766174656421006E616E0069E2
:102280006E66006F766600766F6C746D657465724D
:102290002034206368005631005632005633005611
:0E22A0003400566F6C74616A65003D00560094
:00000001FF
